{
  "contractName": "ERC20",
  "abi": [
    {
      "inputs": [
        {
          "internalType": "string",
          "name": "_name",
          "type": "string"
        },
        {
          "internalType": "string",
          "name": "_symbol",
          "type": "string"
        },
        {
          "internalType": "uint256",
          "name": "_amount",
          "type": "uint256"
        }
      ],
      "stateMutability": "nonpayable",
      "type": "constructor"
    },
    {
      "anonymous": false,
      "inputs": [
        {
          "indexed": false,
          "internalType": "address",
          "name": "owner",
          "type": "address"
        },
        {
          "indexed": false,
          "internalType": "address",
          "name": "spender",
          "type": "address"
        },
        {
          "indexed": false,
          "internalType": "uint256",
          "name": "value",
          "type": "uint256"
        }
      ],
      "name": "Approval",
      "type": "event"
    },
    {
      "anonymous": false,
      "inputs": [
        {
          "indexed": false,
          "internalType": "address",
          "name": "form",
          "type": "address"
        },
        {
          "indexed": false,
          "internalType": "address",
          "name": "to",
          "type": "address"
        },
        {
          "indexed": false,
          "internalType": "uint256",
          "name": "value",
          "type": "uint256"
        }
      ],
      "name": "Transfer",
      "type": "event"
    },
    {
      "inputs": [
        {
          "internalType": "address",
          "name": "",
          "type": "address"
        },
        {
          "internalType": "address",
          "name": "",
          "type": "address"
        }
      ],
      "name": "allowance",
      "outputs": [
        {
          "internalType": "uint256",
          "name": "",
          "type": "uint256"
        }
      ],
      "stateMutability": "view",
      "type": "function",
      "constant": true
    },
    {
      "inputs": [
        {
          "internalType": "address",
          "name": "",
          "type": "address"
        }
      ],
      "name": "balances",
      "outputs": [
        {
          "internalType": "uint256",
          "name": "",
          "type": "uint256"
        }
      ],
      "stateMutability": "view",
      "type": "function",
      "constant": true
    },
    {
      "inputs": [],
      "name": "decimals",
      "outputs": [
        {
          "internalType": "uint8",
          "name": "",
          "type": "uint8"
        }
      ],
      "stateMutability": "view",
      "type": "function",
      "constant": true
    },
    {
      "inputs": [],
      "name": "name",
      "outputs": [
        {
          "internalType": "string",
          "name": "",
          "type": "string"
        }
      ],
      "stateMutability": "view",
      "type": "function",
      "constant": true
    },
    {
      "inputs": [],
      "name": "symbol",
      "outputs": [
        {
          "internalType": "string",
          "name": "",
          "type": "string"
        }
      ],
      "stateMutability": "view",
      "type": "function",
      "constant": true
    },
    {
      "inputs": [],
      "name": "totalSupply",
      "outputs": [
        {
          "internalType": "uint256",
          "name": "",
          "type": "uint256"
        }
      ],
      "stateMutability": "view",
      "type": "function",
      "constant": true
    },
    {
      "inputs": [
        {
          "internalType": "address",
          "name": "account",
          "type": "address"
        }
      ],
      "name": "balanceOf",
      "outputs": [
        {
          "internalType": "uint256",
          "name": "",
          "type": "uint256"
        }
      ],
      "stateMutability": "view",
      "type": "function",
      "constant": true
    },
    {
      "inputs": [
        {
          "internalType": "address",
          "name": "to",
          "type": "address"
        },
        {
          "internalType": "uint256",
          "name": "amount",
          "type": "uint256"
        }
      ],
      "name": "transfer",
      "outputs": [
        {
          "internalType": "bool",
          "name": "",
          "type": "bool"
        }
      ],
      "stateMutability": "nonpayable",
      "type": "function"
    },
    {
      "inputs": [
        {
          "internalType": "address",
          "name": "spender",
          "type": "address"
        },
        {
          "internalType": "uint256",
          "name": "amount",
          "type": "uint256"
        }
      ],
      "name": "approve",
      "outputs": [
        {
          "internalType": "bool",
          "name": "",
          "type": "bool"
        }
      ],
      "stateMutability": "nonpayable",
      "type": "function"
    },
    {
      "inputs": [
        {
          "internalType": "address",
          "name": "spender",
          "type": "address"
        },
        {
          "internalType": "address",
          "name": "to",
          "type": "address"
        },
        {
          "internalType": "uint256",
          "name": "amount",
          "type": "uint256"
        }
      ],
      "name": "transferFrom",
      "outputs": [
        {
          "internalType": "bool",
          "name": "",
          "type": "bool"
        }
      ],
      "stateMutability": "nonpayable",
      "type": "function"
    },
    {
      "inputs": [
        {
          "internalType": "uint256",
          "name": "amount",
          "type": "uint256"
        }
      ],
      "name": "burn",
      "outputs": [],
      "stateMutability": "nonpayable",
      "type": "function"
    }
  ],
  "bytecode": "0x60806040526012600260006101000a81548160ff021916908360ff1602179055503480156200002d57600080fd5b506040516200161038038062001610833981810160405281019062000053919062000343565b33600460006101000a81548173ffffffffffffffffffffffffffffffffffffffff021916908373ffffffffffffffffffffffffffffffffffffffff1602179055508260009081620000a591906200061e565b508160019081620000b791906200061e565b50620000f6600260009054906101000a900460ff1660ff16600a620000dd919062000888565b82620000ea9190620008d9565b620000ff60201b60201c565b5050506200095f565b80600560003373ffffffffffffffffffffffffffffffffffffffff1673ffffffffffffffffffffffffffffffffffffffff168152602001908152602001600020600082825462000150919062000924565b9250508190555080600360008282546200016b919062000924565b9250508190555050565b6000604051905090565b600080fd5b600080fd5b600080fd5b600080fd5b6000601f19601f8301169050919050565b7f4e487b7100000000000000000000000000000000000000000000000000000000600052604160045260246000fd5b620001de8262000193565b810181811067ffffffffffffffff821117156200020057620001ff620001a4565b5b80604052505050565b60006200021562000175565b9050620002238282620001d3565b919050565b600067ffffffffffffffff821115620002465762000245620001a4565b5b620002518262000193565b9050602081019050919050565b60005b838110156200027e57808201518184015260208101905062000261565b60008484015250505050565b6000620002a16200029b8462000228565b62000209565b905082815260208101848484011115620002c057620002bf6200018e565b5b620002cd8482856200025e565b509392505050565b600082601f830112620002ed57620002ec62000189565b5b8151620002ff8482602086016200028a565b91505092915050565b6000819050919050565b6200031d8162000308565b81146200032957600080fd5b50565b6000815190506200033d8162000312565b92915050565b6000806000606084860312156200035f576200035e6200017f565b5b600084015167ffffffffffffffff81111562000380576200037f62000184565b5b6200038e86828701620002d5565b935050602084015167ffffffffffffffff811115620003b257620003b162000184565b5b620003c086828701620002d5565b9250506040620003d3868287016200032c565b9150509250925092565b600081519050919050565b7f4e487b7100000000000000000000000000000000000000000000000000000000600052602260045260246000fd5b600060028204905060018216806200043057607f821691505b602082108103620004465762000445620003e8565b5b50919050565b60008190508160005260206000209050919050565b60006020601f8301049050919050565b600082821b905092915050565b600060088302620004b07fffffffffffffffffffffffffffffffffffffffffffffffffffffffffffffffff8262000471565b620004bc868362000471565b95508019841693508086168417925050509392505050565b6000819050919050565b6000620004ff620004f9620004f38462000308565b620004d4565b62000308565b9050919050565b6000819050919050565b6200051b83620004de565b620005336200052a8262000506565b8484546200047e565b825550505050565b600090565b6200054a6200053b565b6200055781848462000510565b505050565b5b818110156200057f576200057360008262000540565b6001810190506200055d565b5050565b601f821115620005ce5762000598816200044c565b620005a38462000461565b81016020851015620005b3578190505b620005cb620005c28562000461565b8301826200055c565b50505b505050565b600082821c905092915050565b6000620005f360001984600802620005d3565b1980831691505092915050565b60006200060e8383620005e0565b9150826002028217905092915050565b6200062982620003dd565b67ffffffffffffffff811115620006455762000644620001a4565b5b62000651825462000417565b6200065e82828562000583565b600060209050601f83116001811462000696576000841562000681578287015190505b6200068d858262000600565b865550620006fd565b601f198416620006a6866200044c565b60005b82811015620006d057848901518255600182019150602085019450602081019050620006a9565b86831015620006f05784890151620006ec601f891682620005e0565b8355505b6001600288020188555050505b505050505050565b7f4e487b7100000000000000000000000000000000000000000000000000000000600052601160045260246000fd5b60008160011c9050919050565b6000808291508390505b600185111562000793578086048111156200076b576200076a62000705565b5b60018516156200077b5780820291505b80810290506200078b8562000734565b94506200074b565b94509492505050565b600082620007ae576001905062000881565b81620007be576000905062000881565b8160018114620007d75760028114620007e25762000818565b600191505062000881565b60ff841115620007f757620007f662000705565b5b8360020a91508482111562000811576200081062000705565b5b5062000881565b5060208310610133831016604e8410600b8410161715620008525782820a9050838111156200084c576200084b62000705565b5b62000881565b62000861848484600162000741565b925090508184048111156200087b576200087a62000705565b5b81810290505b9392505050565b6000620008958262000308565b9150620008a28362000308565b9250620008d17fffffffffffffffffffffffffffffffffffffffffffffffffffffffffffffffff84846200079c565b905092915050565b6000620008e68262000308565b9150620008f38362000308565b9250828202620009038162000308565b915082820484148315176200091d576200091c62000705565b5b5092915050565b6000620009318262000308565b91506200093e8362000308565b925082820190508082111562000959576200095862000705565b5b92915050565b610ca1806200096f6000396000f3fe608060405234801561001057600080fd5b50600436106100a95760003560e01c8063313ce56711610071578063313ce5671461017a57806342966c681461019857806370a08231146101b457806395d89b41146101e4578063a9059cbb14610202578063dd62ed3e14610232576100a9565b806306fdde03146100ae578063095ea7b3146100cc57806318160ddd146100fc57806323b872dd1461011a57806327e235e31461014a575b600080fd5b6100b6610262565b6040516100c391906108af565b60405180910390f35b6100e660048036038101906100e1919061096a565b6102f0565b6040516100f391906109c5565b60405180910390f35b6101046103b8565b60405161011191906109ef565b60405180910390f35b610134600480360381019061012f9190610a0a565b6103be565b60405161014191906109c5565b60405180910390f35b610164600480360381019061015f9190610a5d565b610593565b60405161017191906109ef565b60405180910390f35b6101826105ab565b60405161018f9190610aa6565b60405180910390f35b6101b260048036038101906101ad9190610ac1565b6105be565b005b6101ce60048036038101906101c99190610a5d565b610630565b6040516101db91906109ef565b60405180910390f35b6101ec610679565b6040516101f991906108af565b60405180910390f35b61021c6004803603810190610217919061096a565b610707565b60405161022991906109c5565b60405180910390f35b61024c60048036038101906102479190610aee565b6107fa565b60405161025991906109ef565b60405180910390f35b6000805461026f90610b5d565b80601f016020809104026020016040519081016040528092919081815260200182805461029b90610b5d565b80156102e85780601f106102bd576101008083540402835291602001916102e8565b820191906000526020600020905b8154815290600101906020018083116102cb57829003601f168201915b505050505081565b600081600660003373ffffffffffffffffffffffffffffffffffffffff1673ffffffffffffffffffffffffffffffffffffffff16815260200190815260200160002060008573ffffffffffffffffffffffffffffffffffffffff1673ffffffffffffffffffffffffffffffffffffffff168152602001908152602001600020819055507f8c5be1e5ebec7d5bd14f71427d1e84f3dd0314c0f7b2291e5b200ac8c7c3b9253384846040516103a693929190610b9d565b60405180910390a16001905092915050565b60035481565b600081600660008673ffffffffffffffffffffffffffffffffffffffff1673ffffffffffffffffffffffffffffffffffffffff16815260200190815260200160002060003373ffffffffffffffffffffffffffffffffffffffff1673ffffffffffffffffffffffffffffffffffffffff16815260200190815260200160002054101561044957600080fd5b81600660008673ffffffffffffffffffffffffffffffffffffffff1673ffffffffffffffffffffffffffffffffffffffff16815260200190815260200160002060003373ffffffffffffffffffffffffffffffffffffffff1673ffffffffffffffffffffffffffffffffffffffff16815260200190815260200160002060008282546104d59190610c03565b9250508190555081600560008673ffffffffffffffffffffffffffffffffffffffff1673ffffffffffffffffffffffffffffffffffffffff168152602001908152602001600020600082825461052b9190610c03565b9250508190555081600560008573ffffffffffffffffffffffffffffffffffffffff1673ffffffffffffffffffffffffffffffffffffffff16815260200190815260200160002060008282546105819190610c37565b92505081905550600190509392505050565b60056020528060005260406000206000915090505481565b600260009054906101000a900460ff1681565b80600560003373ffffffffffffffffffffffffffffffffffffffff1673ffffffffffffffffffffffffffffffffffffffff168152602001908152602001600020600082825461060d9190610c03565b9250508190555080600360008282546106269190610c03565b9250508190555050565b6000600560008373ffffffffffffffffffffffffffffffffffffffff1673ffffffffffffffffffffffffffffffffffffffff168152602001908152602001600020549050919050565b6001805461068690610b5d565b80601f01602080910402602001604051908101604052809291908181526020018280546106b290610b5d565b80156106ff5780601f106106d4576101008083540402835291602001916106ff565b820191906000526020600020905b8154815290600101906020018083116106e257829003601f168201915b505050505081565b600081600560003373ffffffffffffffffffffffffffffffffffffffff1673ffffffffffffffffffffffffffffffffffffffff16815260200190815260200160002060008282546107589190610c03565b9250508190555081600560008573ffffffffffffffffffffffffffffffffffffffff1673ffffffffffffffffffffffffffffffffffffffff16815260200190815260200160002060008282546107ae9190610c37565b925050819055507fddf252ad1be2c89b69c2b068fc378daa952ba7f163c4a11628f55a4df523b3ef3384846040516107e893929190610b9d565b60405180910390a16001905092915050565b6006602052816000526040600020602052806000526040600020600091509150505481565b600081519050919050565b600082825260208201905092915050565b60005b8381101561085957808201518184015260208101905061083e565b60008484015250505050565b6000601f19601f8301169050919050565b60006108818261081f565b61088b818561082a565b935061089b81856020860161083b565b6108a481610865565b840191505092915050565b600060208201905081810360008301526108c98184610876565b905092915050565b600080fd5b600073ffffffffffffffffffffffffffffffffffffffff82169050919050565b6000610901826108d6565b9050919050565b610911816108f6565b811461091c57600080fd5b50565b60008135905061092e81610908565b92915050565b6000819050919050565b61094781610934565b811461095257600080fd5b50565b6000813590506109648161093e565b92915050565b60008060408385031215610981576109806108d1565b5b600061098f8582860161091f565b92505060206109a085828601610955565b9150509250929050565b60008115159050919050565b6109bf816109aa565b82525050565b60006020820190506109da60008301846109b6565b92915050565b6109e981610934565b82525050565b6000602082019050610a0460008301846109e0565b92915050565b600080600060608486031215610a2357610a226108d1565b5b6000610a318682870161091f565b9350506020610a428682870161091f565b9250506040610a5386828701610955565b9150509250925092565b600060208284031215610a7357610a726108d1565b5b6000610a818482850161091f565b91505092915050565b600060ff82169050919050565b610aa081610a8a565b82525050565b6000602082019050610abb6000830184610a97565b92915050565b600060208284031215610ad757610ad66108d1565b5b6000610ae584828501610955565b91505092915050565b60008060408385031215610b0557610b046108d1565b5b6000610b138582860161091f565b9250506020610b248582860161091f565b9150509250929050565b7f4e487b7100000000000000000000000000000000000000000000000000000000600052602260045260246000fd5b60006002820490506001821680610b7557607f821691505b602082108103610b8857610b87610b2e565b5b50919050565b610b97816108f6565b82525050565b6000606082019050610bb26000830186610b8e565b610bbf6020830185610b8e565b610bcc60408301846109e0565b949350505050565b7f4e487b7100000000000000000000000000000000000000000000000000000000600052601160045260246000fd5b6000610c0e82610934565b9150610c1983610934565b9250828203905081811115610c3157610c30610bd4565b5b92915050565b6000610c4282610934565b9150610c4d83610934565b9250828201905080821115610c6557610c64610bd4565b5b9291505056fea2646970667358221220b9f256094d2962eb889858d046017551b049e06e1be1abcc88d925086958230964736f6c63430008130033",
  "immutableReferences": {},
  "source": "// SPDX-License-Identifier: MIT\r\n\r\npragma solidity ^0.8.19;\r\n\r\nimport \"./IERC20.sol\";\r\n\r\n// class   \r\n// implements \r\n\r\n// is    \r\n\r\ncontract ERC20 is IERC20 {\r\n    // ERC 20  \r\n\r\n    //   \r\n    string public name;\r\n\r\n    //   (  ) ETH \r\n    string public symbol;\r\n\r\n    //       18\r\n    uint8 public decimals = 18;\r\n\r\n    //   \r\n    //     interface  virtual  \r\n    //   virtual \r\n    // override      ()\r\n    uint public override totalSupply;\r\n\r\n    //         .(     )\r\n    address private owner;\r\n\r\n    //       \r\n    // memory       \r\n    // uint  256    \r\n    //     memory  .\r\n    constructor(string memory _name, string memory _symbol, uint256 _amount ) {\r\n        //     \r\n        //    \r\n        //     \r\n\r\n        // SoonToken\r\n        owner = msg.sender;\r\n        name = _name;  // SoonToken\r\n        symbol = _symbol; // STK\r\n        //      \r\n        // _amount * (10 ** uint256(decimals))\r\n\r\n        // \r\n        mint(_amount * (10 ** uint256(decimals)));\r\n    }\r\n\r\n    // balance           \r\n    mapping(address => uint) public balances;\r\n    /*\r\n        balances = {\r\n            0x1111111111111111111111111111111111111111 : 100,\r\n            0x1111111111111111111111111111111111112212 : 100,\r\n            0x1111111111111111111111111111111156546464 : 200,\r\n        }\r\n     */\r\n\r\n     //       \r\n     mapping(address => mapping(address => uint)) public override allowance;\r\n     /*\r\n        allowance = {\r\n            0x1111111111111111111111111111111111111111 : {\r\n                0x1111111111111111111111111111111111112212 : 50\r\n            },\r\n            \r\n            0x1111111111111111111111111111111111112212 : {\r\n                0x1111111111111111111111111111111156546464 : 40\r\n            },\r\n        }\r\n     */\r\n\r\n    //   \r\n    function balanceOf(address account) external view override returns(uint){\r\n        return balances[account];\r\n    } \r\n\r\n    //     \r\n    function transfer(address to, uint amount) external override returns(bool){\r\n        //     \r\n        balances[msg.sender] -= amount;\r\n        //     \r\n        balances[to] += amount;\r\n        // transfer     \r\n        // emit     \r\n        emit Transfer(msg.sender, to, amount);\r\n\r\n        //  true  \r\n        //  false\r\n        return true;\r\n    }\r\n\r\n    //    \r\n    function approve(address spender, uint amount) external override returns (bool){\r\n\r\n        //  \r\n        allowance[msg.sender][spender] = amount;\r\n        emit Approval(msg.sender, spender, amount);\r\n\r\n        //  true  \r\n        //  false\r\n        return true;\r\n    }\r\n\r\n    //    3     \r\n    function transferFrom(address spender, address to, uint amount) external override returns(bool){\r\n        //         \r\n        require(allowance[spender][msg.sender] >= amount);\r\n\r\n        allowance[spender][msg.sender] -= amount;\r\n        balances[spender] -= amount;\r\n        balances[to] += amount;\r\n        return true;\r\n    }\r\n    \r\n    //   \r\n    // internal    \r\n    function mint(uint amount) internal {\r\n        \r\n        balances[msg.sender] += amount;\r\n        totalSupply += amount;\r\n        \r\n    }\r\n\r\n    //    \r\n    //         .\r\n    function burn(uint amount) external{\r\n        balances[msg.sender] -=amount;\r\n        totalSupply -= amount;\r\n    }\r\n}",
  "sourcePath": "C:\\Users\\ijy19\\OneDrive\\ \\node\\20231010\\contracts\\ERC20.sol",
  "compiler": {
    "name": "solc",
    "version": "0.8.19+commit.7dd6d404.Emscripten.clang"
  },
  "schemaVersion": "3.4.16",
  "updatedAt": "2023-10-10T02:39:03.110Z",
  "networkType": "ethereum",
  "devdoc": {
    "kind": "dev",
    "methods": {},
    "version": 1
  },
  "userdoc": {
    "kind": "user",
    "methods": {},
    "version": 1
  }
}